{
  "contractName": "Adoption",
  "abi": [
    {
      "constant": false,
      "inputs": [
        {
          "name": "tmpFishId",
          "type": "uint256"
        },
        {
          "name": "aucprice",
          "type": "uint256"
        }
      ],
      "name": "setauction",
      "outputs": [
        {
          "name": "",
          "type": "uint256"
        }
      ],
      "payable": false,
      "stateMutability": "nonpayable",
      "type": "function"
    },
    {
      "constant": false,
      "inputs": [
        {
          "name": "FishId",
          "type": "uint256"
        },
        {
          "name": "owner",
          "type": "address"
        }
      ],
      "name": "adopt",
      "outputs": [
        {
          "name": "",
          "type": "bool"
        }
      ],
      "payable": true,
      "stateMutability": "payable",
      "type": "function"
    },
    {
      "constant": true,
      "inputs": [],
      "name": "seller",
      "outputs": [
        {
          "name": "",
          "type": "address"
        }
      ],
      "payable": false,
      "stateMutability": "view",
      "type": "function"
    },
    {
      "constant": true,
      "inputs": [
        {
          "name": "",
          "type": "uint256"
        }
      ],
      "name": "getAdopters",
      "outputs": [
        {
          "name": "",
          "type": "address[16]"
        },
        {
          "name": "motherId",
          "type": "uint256"
        },
        {
          "name": "fatherId",
          "type": "uint256"
        },
        {
          "name": "gen",
          "type": "uint256"
        },
        {
          "name": "genes",
          "type": "uint256"
        },
        {
          "name": "owner",
          "type": "address"
        },
        {
          "name": "price",
          "type": "uint256"
        },
        {
          "name": "ifSelling",
          "type": "bool"
        }
      ],
      "payable": false,
      "stateMutability": "view",
      "type": "function"
    },
    {
      "anonymous": false,
      "inputs": [
        {
          "indexed": true,
          "name": "",
          "type": "uint256"
        },
        {
          "indexed": true,
          "name": "_to",
          "type": "address"
        },
        {
          "indexed": false,
          "name": "_value",
          "type": "uint256"
        }
      ],
      "name": "adopters",
      "type": "function",
      "constant": true,
      "outputs": [
        {
          "name": "",
          "type": "address"
        }
      ],
      "payable": false,
      "stateMutability": "view"
    },
    {
      "constant": true,
      "inputs": [
        {
          "name": "tmpFishId",
          "type": "uint256"
        },
        {
          "name": "owner",
          "type": "address"
        }
      ],
      "name": "getowner",
      "outputs": [
        {
          "name": "",
          "type": "address"
        }
      ],
      "payable": false,
      "stateMutability": "view",
      "type": "function"
    },
    {
      "constant": true,
      "inputs": [
        {
          "name": "tmpFishId",
          "type": "uint256"
        }
      ],
      "name": "getgenes",
      "outputs": [
        {
          "name": "",
          "type": "uint256"
        }
      ],
      "payable": false,
      "stateMutability": "view",
      "type": "function"
    },
    {
      "constant": true,
      "inputs": [],
      "name": "secondsPerBlock",
      "outputs": [
        {
          "name": "",
          "type": "uint256"
        }
      ],
      "payable": false,
      "stateMutability": "view",
      "type": "function"
    },
    {
      "constant": true,
      "inputs": [
        {
          "name": "fatherId",
          "type": "uint256"
        },
        {
          "name": "motherId",
          "type": "uint256"
        }
      ],
      "name": "setgenes",
      "outputs": [
        {
          "name": "base",
          "type": "uint256"
        }
      ],
      "payable": false,
      "stateMutability": "view",
      "type": "function"
    },
    {
      "constant": true,
      "inputs": [
        {
          "name": "tmpFishId",
          "type": "uint256"
        }
      ],
      "name": "getFishNums",
      "outputs": [
        {
          "name": "FishNums",
          "type": "uint256"
        }
      ],
      "payable": false,
      "stateMutability": "view",
      "type": "function"
    },
    {
      "constant": true,
      "inputs": [
        {
          "name": "tmpFishId",
          "type": "uint256"
        }
      ],
      "name": "getprice",
      "outputs": [
        {
          "name": "",
          "type": "uint256"
        }
      ],
      "payable": false,
      "stateMutability": "view",
      "type": "function"
    },
    {
      "constant": true,
      "inputs": [
        {
          "name": "tmpFishId",
          "type": "uint256"
        }
      ],
      "name": "getmother",
      "outputs": [
        {
          "name": "",
          "type": "uint256"
        }
      ],
      "payable": false,
      "stateMutability": "view",
      "type": "function"
    },
    {
      "constant": false,
      "inputs": [
        {
          "name": "fatherId",
          "type": "uint256"
        },
        {
          "name": "motherId",
          "type": "uint256"
        }
      ],
      "name": "breed",
      "outputs": [
        {
          "name": "",
          "type": "uint256"
        }
      ],
      "payable": false,
      "stateMutability": "nonpayable",
      "type": "function"
    },
    {
      "constant": true,
      "inputs": [
        {
          "name": "",
          "type": "uint256"
        }
      ],
      "name": "genFish",
      "outputs": [
        {
          "name": "FishId",
          "type": "uint256"
        },
        {
          "name": "motherId",
          "type": "uint256"
        },
        {
          "name": "fatherId",
          "type": "uint256"
        },
        {
          "name": "gen",
          "type": "uint256"
        },
        {
          "name": "genes",
          "type": "uint256"
        },
        {
          "name": "owner",
          "type": "address"
        },
        {
          "name": "price",
          "type": "uint256"
        },
        {
          "name": "ifSelling",
          "type": "bool"
        }
      ],
      "payable": false,
      "stateMutability": "view",
      "type": "function"
    },
    {
      "constant": true,
      "inputs": [
        {
          "name": "tmpFishId",
          "type": "uint256"
        },
        {
          "name": "aucprice",
          "type": "uint256"
        }
      ],
      "name": "getfather",
      "outputs": [
        {
          "name": "",
          "type": "uint256"
        }
      ],
      "payable": false,
      "stateMutability": "view",
      "type": "function"
    },
    {
      "constant": true,
      "inputs": [
        {
          "indexed": true,
          "name": "_from",
          "type": "address"
        },
        {
          "indexed": true,
          "name": "_to",
          "type": "address"
        },
        {
          "indexed": false,
          "name": "_value",
          "type": "uint256"
        }
      ],
      "name": "Transfer",
      "outputs": [
        {
          "name": "FishNums",
          "type": "uint256"
        }
      ],
      "payable": false,
      "stateMutability": "view",
      "type": "event",
      "anonymous": false
    }
  ],
  "bytecode": "0x606060405260008060006101000a81548173ffffffffffffffffffffffffffffffffffffffff021916908373ffffffffffffffffffffffffffffffffffffffff1602179055506000600160006101000a81548173ffffffffffffffffffffffffffffffffffffffff021916908373ffffffffffffffffffffffffffffffffffffffff1602179055506000600260006101000a81548173ffffffffffffffffffffffffffffffffffffffff021916908373ffffffffffffffffffffffffffffffffffffffff160217905550600f600355600060065560066007556002600855600360095534156100ed57600080fd5b610b5e806100fc6000396000f3006060604052600436106100db576000357c0100000000000000000000000000000000000000000000000000000000900463ffffffff1680630175dc8b146100e05780630689093d1461012057806308551a531461016f5780633de4eb17146101c457806343ae80d3146102155780634845ae7a14610278578063689a39bd146102db5780637a7d4937146103125780637f6c297f1461033b578063902dc22214610364578063bf7769281461038d578063d0965738146103c4578063d9ecad7b146103fb578063e356964e1461043b578063fd843232146104d3575b600080fd5b34156100eb57600080fd5b61010a600480803590602001909190803590602001909190505061050a565b6040518082815260200191505060405180910390f35b610155600480803590602001909190803573ffffffffffffffffffffffffffffffffffffffff16906020019091905050610546565b604051808215151515815260200191505060405180910390f35b341561017a57600080fd5b61018261061a565b604051808273ffffffffffffffffffffffffffffffffffffffff1673ffffffffffffffffffffffffffffffffffffffff16815260200191505060405180910390f35b34156101cf57600080fd5b6101d7610640565b6040518082601060200280838360005b838110156102025780820151818401526020810190506101e7565b5050505090500191505060405180910390f35b341561022057600080fd5b61023660048080359060200190919050506106c1565b604051808273ffffffffffffffffffffffffffffffffffffffff1673ffffffffffffffffffffffffffffffffffffffff16815260200191505060405180910390f35b341561028357600080fd5b61029960048080359060200190919050506106f6565b604051808273ffffffffffffffffffffffffffffffffffffffff1673ffffffffffffffffffffffffffffffffffffffff16815260200191505060405180910390f35b34156102e657600080fd5b6102fc6004808035906020019091905050610736565b6040518082815260200191505060405180910390f35b341561031d57600080fd5b610325610756565b6040518082815260200191505060405180910390f35b341561034657600080fd5b61034e61075c565b6040518082815260200191505060405180910390f35b341561036f57600080fd5b61037761078b565b6040518082815260200191505060405180910390f35b341561039857600080fd5b6103ae600480803590602001909190505061082b565b6040518082815260200191505060405180910390f35b34156103cf57600080fd5b6103e5600480803590602001909190505061084b565b6040518082815260200191505060405180910390f35b341561040657600080fd5b610425600480803590602001909190803590602001909190505061086b565b6040518082815260200191505060405180910390f35b341561044657600080fd5b61045c6004808035906020019091905050610a5e565b604051808981526020018881526020018781526020018681526020018581526020018473ffffffffffffffffffffffffffffffffffffffff1673ffffffffffffffffffffffffffffffffffffffff168152602001838152602001821515151581526020019850505050505050505060405180910390f35b34156104de57600080fd5b6104f46004808035906020019091905050610ad3565b6040518082815260200191505060405180910390f35b60008160056000858152602001908152602001600020600601819055506005600084815260200190815260200160002060060154905092915050565b600080600090506000841015801561055f5750600f8411155b151561056a57600080fd5b33600b8560108110151561057a57fe5b0160006101000a81548173ffffffffffffffffffffffffffffffffffffffff021916908373ffffffffffffffffffffffffffffffffffffffff1602179055508273ffffffffffffffffffffffffffffffffffffffff166108fc3073ffffffffffffffffffffffffffffffffffffffff16319081150290604051600060405180830381858888f19350505050151561061057600080fd5b8091505092915050565b600a60009054906101000a900473ffffffffffffffffffffffffffffffffffffffff1681565b610648610af3565b600b6010806020026040519081016040528092919082601080156106b7576020028201915b8160009054906101000a900473ffffffffffffffffffffffffffffffffffffffff1673ffffffffffffffffffffffffffffffffffffffff168152602001906001019080831161066d575b5050505050905090565b600b816010811015156106d057fe5b016000915054906101000a900473ffffffffffffffffffffffffffffffffffffffff1681565b60006005600083815260200190815260200160002060050160009054906101000a900473ffffffffffffffffffffffffffffffffffffffff169050919050565b600060056000838152602001908152602001600020600401549050919050565b60035481565b6000655af3107a40004173ffffffffffffffffffffffffffffffffffffffff1681151561078557fe5b06905090565b6000806000809250339150600090505b60065481111515610826578173ffffffffffffffffffffffffffffffffffffffff166005600083815260200190815260200160002060050160009054906101000a900473ffffffffffffffffffffffffffffffffffffffff1673ffffffffffffffffffffffffffffffffffffffff1614156108195782806001019350505b808060010191505061079b565b505090565b600060056000838152602001908152602001600020600601549050919050565b600060056000838152602001908152602001600020600101549050919050565b600061010060405190810160405280600654815260200183815260200184815260200160056000868152602001908152602001600020600301600081548092919060010191905055815260200162989680600460056000878152602001908152602001600020600401548115156108de57fe5b048115156108e857fe5b0662989680806003600560008a81526020019081526020016000206004015481151561091057fe5b0481151561091a57fe5b06020181526020016005600085815260200190815260200160002060050160009054906101000a900473ffffffffffffffffffffffffffffffffffffffff1673ffffffffffffffffffffffffffffffffffffffff1681526020016000815260200160011515815250600560006006548152602001908152602001600020600082015181600001556020820151816001015560408201518160020155606082015181600301556080820151816004015560a08201518160050160006101000a81548173ffffffffffffffffffffffffffffffffffffffff021916908373ffffffffffffffffffffffffffffffffffffffff16021790555060c0820151816006015560e08201518160070160006101000a81548160ff02191690831515021790555090505060056000600654815260200190815260200160002060040154905092915050565b60056020528060005260406000206000915090508060000154908060010154908060020154908060030154908060040154908060050160009054906101000a900473ffffffffffffffffffffffffffffffffffffffff16908060060154908060070160009054906101000a900460ff16905088565b600060056000838152602001908152602001600020600201549050919050565b610200604051908101604052806010905b600073ffffffffffffffffffffffffffffffffffffffff16815260200190600190039081610b0457905050905600a165627a7a72305820eff5c5a3297fd04fad8ed4f24e6f5e662e136dbad00532248987128044501ccf0029",
  "source": "pragma solidity ^0.4.17;\ncontract Adoption {\n\n  address cooAddress=0x000;\n  address ceoAddress=0x000;\n  address cfoAddress=0x000;\n\n  uint256 public secondsPerBlock = 15;\n\n  mapping (address => uint) balances;\n\n      event Transfer(address indexed _from, address indexed _to, uint256 _value);\n\n      function MetaCoin() internal{\n          balances[msg.sender] = 1000000000000000000;\n      }\n\n      function sendCoin(address receiver, uint amount) internal returns(bool sufficient) {\n          if (balances[msg.sender] < amount) return false;\n          balances[msg.sender] -= amount;\n          balances[receiver] += amount;\n          Transfer(msg.sender, receiver, amount);\n          return true;\n      }\n\n  /*uint256[] cooldowns;\n  cooldowns = new uint[](7);\n  cooldowns[0]=0;\n  function setSecondsPerBlock(uint256 secs) external onlyCLevel {\n      require(secs < cooldowns[0]);\n      secondsPerBlock = secs;\n  }*/\n  /// @dev Set the cooldownEndTime for the given Kitty, based on its current cooldownIndex.\n  ///  Also increments the cooldownIndex (unless it has hit the cap).\n  /// @param _kitten A reference to the Kitty in storage which needs its timer started.\n  /*function _triggerCooldown(Kitty storage _kitten) internal {\n      // Compute an estimation of the cooldown time in blocks (based on current cooldownIndex).\n      _kitten.cooldownEndBlock = uint64((cooldowns[_kitten.cooldownIndex]/secondsPerBlock) + block.number);\n      // Increment the breeding count, clamping it at 13, which is the length of the\n      // cooldowns array. We could check the array size dynamically, but hard-coding\n      // this as a constant saves gas. Yay, Solidity!\n      if (_kitten.cooldownIndex < 13) {\n          _kitten.cooldownIndex += 1;\n      }\n  }*/\n  /**cooldown是通过最小时间戳实现的，和公鱼的冷却时间有关系，鱼的基因直接由父母双亲的基因截取移位操作获得\n   * @dev Throws if called by any account other than the owner.\n   */\n\n  modifier onlyOwner(uint256 tmpFishId) {\n    require(msg.sender == genFish[tmpFishId].owner);\n    _;\n  }\n  //ceo、cfo、coo权限\n  modifier onlyCLevel() {\n      require(\n          msg.sender == cooAddress ||\n          msg.sender == ceoAddress ||\n          msg.sender == cfoAddress\n      );\n      _;\n  }\n    struct Fish {\n        uint256 FishId;\n        uint256 motherId;\n        uint256 fatherId;\n        uint gen;\n        uint256 genes;\n        address owner;  //拥有者的地址\n        uint256 price;\n        bool ifSelling; //是否售卖状态\n    }\n    mapping(uint => Fish) public genFish;\n    uint256 lastGen0FishId = 0;\n    // Adopting a Fish\n    function adopt(uint FishId,address owner) public payable returns (bool) {\n      bool success = false;\n      require(FishId >= 0 && FishId <= 15); // 获取FishID\n      adopters[FishId] = msg.sender;\n      owner.transfer(this.balance);\n      return success;\n\n      //价格需要和鱼绑定\n      /*success = false;\n      address seller=genFish[tmpFishId].owner;\n      require(genFish[tmpFishId].owner!=msg.sender);\n      if(forsale(tmpFishId)){\n        sendCoin(seller, genFish[tmpFishId].price);\n        genFish[tmpFishId].owner=msg.sender;\n        genFish[tmpFishId].ifSelling=false;\n        success=true;\n      }\n      return success;*/\n\n    }\n\n    // Retrieving the adopters\n    function getAdopters() public view returns (address[16]) {\n      return adopters;\n    }\n\n    //生成初代鱼基因,暂时只需14位(10)即可\n    function setgenes() public view returns (uint256 base){\n        base=(uint256(block.coinbase))%100000000000000;\n    }\n\n    //设置初代鱼价格\n    uint bettergen_1 = 6;\n    uint bettergen_2 = 2;\n    uint bettergen_3 = 3;\n    function setprice(uint256 tmpFishId)  internal returns (uint256){\n      uint256 price;\n      if(genFish[tmpFishId].owner==ceoAddress)\n      {\n          price=getgenes(tmpFishId);\n          if(price%bettergen_2==0){\n              price*=bettergen_2;\n          }\n          else{\n              price*=bettergen_3;\n          }\n          if((price%10)%bettergen_3==0){\n              price*=bettergen_1;\n          }\n          if((price/10000)%10==bettergen_1||(price/100000)%10==bettergen_1){\n              price*=10;\n          }\n          if((price/1000000)%10==bettergen_1||(price/100000000)%10==bettergen_1){\n              price*=10;\n          }\n        genFish[tmpFishId].price=price*100;\n        return genFish[tmpFishId].price;\n      }\n      else\n        return;\n    }\n\n    //初始化初代鱼\n    function generateFish() internal onlyCLevel{\n          genFish[lastGen0FishId]=Fish(lastGen0FishId,0,0,0,setgenes(),0,0,true);\n          genFish[lastGen0FishId].price=setprice(lastGen0FishId);\n          lastGen0FishId++;\n    }\n\n    /*/// @dev we can create promo kittens, up to a limit. Only callable by COO\n    /// @param _genes the encoded genes of the kitten to be created, any value is accepted\n    /// @param _owner the future owner of the created kittens. Default to contract COO\n    function createPromoKitty(uint256 _genes, address _owner) external onlyCOO {\n        address kittyOwner = _owner;\n        if (kittyOwner == address(0)) {\n             kittyOwner = cooAddress;\n        }\n        require(promoCreatedCount < PROMO_CREATION_LIMIT);\n\n        promoCreatedCount++;\n        _createKitty(0, 0, 0, _genes, kittyOwner);\n    }\n    /// @dev Creates a new gen0 kitty with the given genes and\n    ///  creates an auction for it.\n    function createGen0Auction(uint256 _genes) external onlyCOO {\n        require(gen0CreatedCount < GEN0_CREATION_LIMIT);\n        uint256 kittyId = _createKitty(0, 0, 0, _genes, address(this));\n        _approve(kittyId, saleAuction);\n        saleAuction.createAuction(\n            kittyId,\n            _computeNextGen0Price(),\n            0,\n            GEN0_AUCTION_DURATION,    event FishSoled(address from,address to,uint256 amount);\n\n            address(this)\n        );\n        gen0CreatedCount++;\n    }*/\n\n    function breed(uint256 fatherId,uint256 motherId) public returns (uint256){\n       genFish[lastGen0FishId]=Fish(lastGen0FishId,motherId,fatherId,\n         genFish[fatherId].gen++,\n         genFish[fatherId].genes/3%10000000*10000000+genFish[motherId].genes/4%10000000,\n         genFish[motherId].owner,0,true);\n       return genFish[lastGen0FishId].genes;\n    }\n\n    //获取鱼父Id\n    function getfather(uint256 tmpFishId) public view returns (uint256){\n        return genFish[tmpFishId].fatherId;\n    }\n    //获取鱼母Id\n    function getmother(uint256 tmpFishId) public view returns (uint256){\n        return genFish[tmpFishId].motherId;\n    }\n    //获取鱼基因\n    function getgenes(uint256 tmpFishId) public view returns (uint256){\n        return genFish[tmpFishId].genes;\n    }\n\n    //获取鱼price\n    function getprice(uint256 tmpFishId) public view returns (uint256){\n        return genFish[tmpFishId].price;\n    }\n\n    //获取鱼主人\n    function getowner(uint256 tmpFishId) public view returns (address){\n        return genFish[tmpFishId].owner;\n    }\n    //拍卖即更新价格\n    function setauction(uint256 tmpFishId,uint256 aucprice) public returns (uint256)\n    {\n        genFish[tmpFishId].price=aucprice;\n        return genFish[tmpFishId].price;\n    }\n\n    //在售状态\n    function forsale(uint256 tmpFishId) internal view returns (bool){\n      if(!genFish[tmpFishId].ifSelling) return false;\n      else return true;\n    }\n\n\n  address public seller;\n  address[16] public adopters;\n\n\n  //获取鱼拥有数量\n  function getFishNums() public view returns(uint FishNums) {\n    FishNums = 0;\n    address myAddress = msg.sender;\n    for(uint256 tmp = 0;tmp<=lastGen0FishId;tmp++){\n            if(genFish[tmp].owner == myAddress){\n               FishNums++;\n            }\n          }\n  }\n}\n",
  "sourcePath": "/home/qmq/eth/Marlin/contracts/Adoption.sol",
  "compiler": {
    "name": "solc",
    "version": "0.4.18+commit.9cf6e910.Emscripten.clang"
  },
  "schemaVersion": "1.0.1",
  "updatedAt": "2018-03-02T14:48:12.094Z"
}